{
  "_format": "hh-sol-artifact-1",
  "contractName": "HiHello",
  "sourceName": "contracts/HiHello.sol",
  "abi": [
    {
      "inputs": [],
      "stateMutability": "nonpayable",
      "type": "constructor"
    },
    {
      "anonymous": false,
      "inputs": [
        {
          "indexed": true,
          "internalType": "address",
          "name": "owner",
          "type": "address"
        },
        {
          "indexed": true,
          "internalType": "address",
          "name": "approved",
          "type": "address"
        },
        {
          "indexed": true,
          "internalType": "uint256",
          "name": "tokenId",
          "type": "uint256"
        }
      ],
      "name": "Approval",
      "type": "event"
    },
    {
      "anonymous": false,
      "inputs": [
        {
          "indexed": true,
          "internalType": "address",
          "name": "owner",
          "type": "address"
        },
        {
          "indexed": true,
          "internalType": "address",
          "name": "operator",
          "type": "address"
        },
        {
          "indexed": false,
          "internalType": "bool",
          "name": "approved",
          "type": "bool"
        }
      ],
      "name": "ApprovalForAll",
      "type": "event"
    },
    {
      "anonymous": false,
      "inputs": [
        {
          "indexed": true,
          "internalType": "address",
          "name": "previousOwner",
          "type": "address"
        },
        {
          "indexed": true,
          "internalType": "address",
          "name": "newOwner",
          "type": "address"
        }
      ],
      "name": "OwnershipTransferred",
      "type": "event"
    },
    {
      "anonymous": false,
      "inputs": [
        {
          "indexed": true,
          "internalType": "address",
          "name": "from",
          "type": "address"
        },
        {
          "indexed": true,
          "internalType": "address",
          "name": "to",
          "type": "address"
        },
        {
          "indexed": true,
          "internalType": "uint256",
          "name": "tokenId",
          "type": "uint256"
        }
      ],
      "name": "Transfer",
      "type": "event"
    },
    {
      "inputs": [
        {
          "internalType": "address",
          "name": "to",
          "type": "address"
        },
        {
          "internalType": "uint256",
          "name": "tokenId",
          "type": "uint256"
        }
      ],
      "name": "approve",
      "outputs": [],
      "stateMutability": "nonpayable",
      "type": "function"
    },
    {
      "inputs": [
        {
          "internalType": "address",
          "name": "owner",
          "type": "address"
        }
      ],
      "name": "balanceOf",
      "outputs": [
        {
          "internalType": "uint256",
          "name": "",
          "type": "uint256"
        }
      ],
      "stateMutability": "view",
      "type": "function"
    },
    {
      "inputs": [
        {
          "internalType": "uint256",
          "name": "tokenId",
          "type": "uint256"
        }
      ],
      "name": "getApproved",
      "outputs": [
        {
          "internalType": "address",
          "name": "",
          "type": "address"
        }
      ],
      "stateMutability": "view",
      "type": "function"
    },
    {
      "inputs": [
        {
          "internalType": "address",
          "name": "owner",
          "type": "address"
        },
        {
          "internalType": "address",
          "name": "operator",
          "type": "address"
        }
      ],
      "name": "isApprovedForAll",
      "outputs": [
        {
          "internalType": "bool",
          "name": "",
          "type": "bool"
        }
      ],
      "stateMutability": "view",
      "type": "function"
    },
    {
      "inputs": [],
      "name": "name",
      "outputs": [
        {
          "internalType": "string",
          "name": "",
          "type": "string"
        }
      ],
      "stateMutability": "view",
      "type": "function"
    },
    {
      "inputs": [],
      "name": "owner",
      "outputs": [
        {
          "internalType": "address",
          "name": "",
          "type": "address"
        }
      ],
      "stateMutability": "view",
      "type": "function"
    },
    {
      "inputs": [
        {
          "internalType": "uint256",
          "name": "tokenId",
          "type": "uint256"
        }
      ],
      "name": "ownerOf",
      "outputs": [
        {
          "internalType": "address",
          "name": "",
          "type": "address"
        }
      ],
      "stateMutability": "view",
      "type": "function"
    },
    {
      "inputs": [],
      "name": "renounceOwnership",
      "outputs": [],
      "stateMutability": "nonpayable",
      "type": "function"
    },
    {
      "inputs": [
        {
          "internalType": "address",
          "name": "to",
          "type": "address"
        },
        {
          "internalType": "string",
          "name": "_uri",
          "type": "string"
        }
      ],
      "name": "safeMint",
      "outputs": [],
      "stateMutability": "payable",
      "type": "function"
    },
    {
      "inputs": [
        {
          "internalType": "address",
          "name": "from",
          "type": "address"
        },
        {
          "internalType": "address",
          "name": "to",
          "type": "address"
        },
        {
          "internalType": "uint256",
          "name": "tokenId",
          "type": "uint256"
        }
      ],
      "name": "safeTransferFrom",
      "outputs": [],
      "stateMutability": "nonpayable",
      "type": "function"
    },
    {
      "inputs": [
        {
          "internalType": "address",
          "name": "from",
          "type": "address"
        },
        {
          "internalType": "address",
          "name": "to",
          "type": "address"
        },
        {
          "internalType": "uint256",
          "name": "tokenId",
          "type": "uint256"
        },
        {
          "internalType": "bytes",
          "name": "data",
          "type": "bytes"
        }
      ],
      "name": "safeTransferFrom",
      "outputs": [],
      "stateMutability": "nonpayable",
      "type": "function"
    },
    {
      "inputs": [
        {
          "internalType": "address",
          "name": "operator",
          "type": "address"
        },
        {
          "internalType": "bool",
          "name": "approved",
          "type": "bool"
        }
      ],
      "name": "setApprovalForAll",
      "outputs": [],
      "stateMutability": "nonpayable",
      "type": "function"
    },
    {
      "inputs": [
        {
          "internalType": "bytes4",
          "name": "interfaceId",
          "type": "bytes4"
        }
      ],
      "name": "supportsInterface",
      "outputs": [
        {
          "internalType": "bool",
          "name": "",
          "type": "bool"
        }
      ],
      "stateMutability": "view",
      "type": "function"
    },
    {
      "inputs": [],
      "name": "symbol",
      "outputs": [
        {
          "internalType": "string",
          "name": "",
          "type": "string"
        }
      ],
      "stateMutability": "view",
      "type": "function"
    },
    {
      "inputs": [
        {
          "internalType": "uint256",
          "name": "index",
          "type": "uint256"
        }
      ],
      "name": "tokenByIndex",
      "outputs": [
        {
          "internalType": "uint256",
          "name": "",
          "type": "uint256"
        }
      ],
      "stateMutability": "view",
      "type": "function"
    },
    {
      "inputs": [
        {
          "internalType": "address",
          "name": "owner",
          "type": "address"
        },
        {
          "internalType": "uint256",
          "name": "index",
          "type": "uint256"
        }
      ],
      "name": "tokenOfOwnerByIndex",
      "outputs": [
        {
          "internalType": "uint256",
          "name": "",
          "type": "uint256"
        }
      ],
      "stateMutability": "view",
      "type": "function"
    },
    {
      "inputs": [
        {
          "internalType": "uint256",
          "name": "tokenId",
          "type": "uint256"
        }
      ],
      "name": "tokenURI",
      "outputs": [
        {
          "internalType": "string",
          "name": "",
          "type": "string"
        }
      ],
      "stateMutability": "view",
      "type": "function"
    },
    {
      "inputs": [],
      "name": "totalSupply",
      "outputs": [
        {
          "internalType": "uint256",
          "name": "",
          "type": "uint256"
        }
      ],
      "stateMutability": "view",
      "type": "function"
    },
    {
      "inputs": [
        {
          "internalType": "address",
          "name": "from",
          "type": "address"
        },
        {
          "internalType": "address",
          "name": "to",
          "type": "address"
        },
        {
          "internalType": "uint256",
          "name": "tokenId",
          "type": "uint256"
        }
      ],
      "name": "transferFrom",
      "outputs": [],
      "stateMutability": "nonpayable",
      "type": "function"
    },
    {
      "inputs": [
        {
          "internalType": "address",
          "name": "newOwner",
          "type": "address"
        }
      ],
      "name": "transferOwnership",
      "outputs": [],
      "stateMutability": "nonpayable",
      "type": "function"
    },
    {
      "inputs": [],
      "name": "withdraw",
      "outputs": [],
      "stateMutability": "nonpayable",
      "type": "function"
    }
  ],
  "bytecode": "0x6080604052655af3107a4000600c553480156200001b57600080fd5b506040518060400160405280600781526020017f486948656c6c6f000000000000000000000000000000000000000000000000008152506040518060400160405280600481526020017f48494845000000000000000000000000000000000000000000000000000000008152508160009080519060200190620000a0929190620001b0565b508060019080519060200190620000b9929190620001b0565b505050620000dc620000d0620000e260201b60201c565b620000ea60201b60201c565b620002c5565b600033905090565b6000600b60009054906101000a900473ffffffffffffffffffffffffffffffffffffffff16905081600b60006101000a81548173ffffffffffffffffffffffffffffffffffffffff021916908373ffffffffffffffffffffffffffffffffffffffff1602179055508173ffffffffffffffffffffffffffffffffffffffff168173ffffffffffffffffffffffffffffffffffffffff167f8be0079c531659141344cd1fd0a4f28419497f9722a3daafe3b4186f6b6457e060405160405180910390a35050565b828054620001be906200028f565b90600052602060002090601f016020900481019282620001e257600085556200022e565b82601f10620001fd57805160ff19168380011785556200022e565b828001600101855582156200022e579182015b828111156200022d57825182559160200191906001019062000210565b5b5090506200023d919062000241565b5090565b5b808211156200025c57600081600090555060010162000242565b5090565b7f4e487b7100000000000000000000000000000000000000000000000000000000600052602260045260246000fd5b60006002820490506001821680620002a857607f821691505b60208210811415620002bf57620002be62000260565b5b50919050565b6136e280620002d56000396000f3fe60806040526004361061012a5760003560e01c80636352211e116100ab578063a22cb4651161006f578063a22cb465146103f2578063b88d4fde1461041b578063c87b56dd14610444578063d204c45e14610481578063e985e9c51461049d578063f2fde38b146104da5761012a565b80636352211e1461030b57806370a0823114610348578063715018a6146103855780638da5cb5b1461039c57806395d89b41146103c75761012a565b806323b872dd116100f257806323b872dd146102285780632f745c59146102515780633ccfd60b1461028e57806342842e0e146102a55780634f6ccce7146102ce5761012a565b806301ffc9a71461012f57806306fdde031461016c578063081812fc14610197578063095ea7b3146101d457806318160ddd146101fd575b600080fd5b34801561013b57600080fd5b50610156600480360381019061015191906123af565b610503565b60405161016391906123f7565b60405180910390f35b34801561017857600080fd5b50610181610515565b60405161018e91906124ab565b60405180910390f35b3480156101a357600080fd5b506101be60048036038101906101b99190612503565b6105a7565b6040516101cb9190612571565b60405180910390f35b3480156101e057600080fd5b506101fb60048036038101906101f691906125b8565b6105ed565b005b34801561020957600080fd5b50610212610705565b60405161021f9190612607565b60405180910390f35b34801561023457600080fd5b5061024f600480360381019061024a9190612622565b610712565b005b34801561025d57600080fd5b50610278600480360381019061027391906125b8565b610772565b6040516102859190612607565b60405180910390f35b34801561029a57600080fd5b506102a3610817565b005b3480156102b157600080fd5b506102cc60048036038101906102c79190612622565b6108db565b005b3480156102da57600080fd5b506102f560048036038101906102f09190612503565b6108fb565b6040516103029190612607565b60405180910390f35b34801561031757600080fd5b50610332600480360381019061032d9190612503565b61096c565b60405161033f9190612571565b60405180910390f35b34801561035457600080fd5b5061036f600480360381019061036a9190612675565b610a1e565b60405161037c9190612607565b60405180910390f35b34801561039157600080fd5b5061039a610ad6565b005b3480156103a857600080fd5b506103b1610aea565b6040516103be9190612571565b60405180910390f35b3480156103d357600080fd5b506103dc610b14565b6040516103e991906124ab565b60405180910390f35b3480156103fe57600080fd5b50610419600480360381019061041491906126ce565b610ba6565b005b34801561042757600080fd5b50610442600480360381019061043d9190612843565b610bbc565b005b34801561045057600080fd5b5061046b60048036038101906104669190612503565b610c1e565b60405161047891906124ab565b60405180910390f35b61049b60048036038101906104969190612967565b610c30565b005b3480156104a957600080fd5b506104c460048036038101906104bf91906129c3565b610c73565b6040516104d191906123f7565b60405180910390f35b3480156104e657600080fd5b5061050160048036038101906104fc9190612675565b610d07565b005b600061050e82610d8b565b9050919050565b60606000805461052490612a32565b80601f016020809104026020016040519081016040528092919081815260200182805461055090612a32565b801561059d5780601f106105725761010080835404028352916020019161059d565b820191906000526020600020905b81548152906001019060200180831161058057829003601f168201915b5050505050905090565b60006105b282610e05565b6004600083815260200190815260200160002060009054906101000a900473ffffffffffffffffffffffffffffffffffffffff169050919050565b60006105f88261096c565b90508073ffffffffffffffffffffffffffffffffffffffff168373ffffffffffffffffffffffffffffffffffffffff161415610669576040517f08c379a000000000000000000000000000000000000000000000000000000000815260040161066090612ad6565b60405180910390fd5b8073ffffffffffffffffffffffffffffffffffffffff16610688610e50565b73ffffffffffffffffffffffffffffffffffffffff1614806106b757506106b6816106b1610e50565b610c73565b5b6106f6576040517f08c379a00000000000000000000000000000000000000000000000000000000081526004016106ed90612b68565b60405180910390fd5b6107008383610e58565b505050565b6000600980549050905090565b61072361071d610e50565b82610f11565b610762576040517f08c379a000000000000000000000000000000000000000000000000000000000815260040161075990612bfa565b60405180910390fd5b61076d838383610fa6565b505050565b600061077d83610a1e565b82106107be576040517f08c379a00000000000000000000000000000000000000000000000000000000081526004016107b590612c8c565b60405180910390fd5b600760008473ffffffffffffffffffffffffffffffffffffffff1673ffffffffffffffffffffffffffffffffffffffff168152602001908152602001600020600083815260200190815260200160002054905092915050565b61081f61120d565b6000479050600061082e610aea565b73ffffffffffffffffffffffffffffffffffffffff168260405161085190612cdd565b60006040518083038185875af1925050503d806000811461088e576040519150601f19603f3d011682016040523d82523d6000602084013e610893565b606091505b50509050806108d7576040517f08c379a00000000000000000000000000000000000000000000000000000000081526004016108ce90612d3e565b60405180910390fd5b5050565b6108f683838360405180602001604052806000815250610bbc565b505050565b6000610905610705565b8210610946576040517f08c379a000000000000000000000000000000000000000000000000000000000815260040161093d90612dd0565b60405180910390fd5b6009828154811061095a57610959612df0565b5b90600052602060002001549050919050565b6000806002600084815260200190815260200160002060009054906101000a900473ffffffffffffffffffffffffffffffffffffffff169050600073ffffffffffffffffffffffffffffffffffffffff168173ffffffffffffffffffffffffffffffffffffffff161415610a15576040517f08c379a0000000000000000000000000000000000000000000000000000000008152600401610a0c90612e6b565b60405180910390fd5b80915050919050565b60008073ffffffffffffffffffffffffffffffffffffffff168273ffffffffffffffffffffffffffffffffffffffff161415610a8f576040517f08c379a0000000000000000000000000000000000000000000000000000000008152600401610a8690612efd565b60405180910390fd5b600360008373ffffffffffffffffffffffffffffffffffffffff1673ffffffffffffffffffffffffffffffffffffffff168152602001908152602001600020549050919050565b610ade61120d565b610ae8600061128b565b565b6000600b60009054906101000a900473ffffffffffffffffffffffffffffffffffffffff16905090565b606060018054610b2390612a32565b80601f0160208091040260200160405190810160405280929190818152602001828054610b4f90612a32565b8015610b9c5780601f10610b7157610100808354040283529160200191610b9c565b820191906000526020600020905b815481529060010190602001808311610b7f57829003601f168201915b5050505050905090565b610bb8610bb1610e50565b8383611351565b5050565b610bcd610bc7610e50565b83610f11565b610c0c576040517f08c379a0000000000000000000000000000000000000000000000000000000008152600401610c0390612bfa565b60405180910390fd5b610c18848484846114be565b50505050565b6060610c298261151a565b9050919050565b600d6000815480929190610c4390612f4c565b9190505550600c54341015610c5757600080fd5b610c6382600d5461162d565b610c6f600d548261164b565b5050565b6000600560008473ffffffffffffffffffffffffffffffffffffffff1673ffffffffffffffffffffffffffffffffffffffff16815260200190815260200160002060008373ffffffffffffffffffffffffffffffffffffffff1673ffffffffffffffffffffffffffffffffffffffff16815260200190815260200160002060009054906101000a900460ff16905092915050565b610d0f61120d565b600073ffffffffffffffffffffffffffffffffffffffff168173ffffffffffffffffffffffffffffffffffffffff161415610d7f576040517f08c379a0000000000000000000000000000000000000000000000000000000008152600401610d7690613007565b60405180910390fd5b610d888161128b565b50565b60007f780e9d63000000000000000000000000000000000000000000000000000000007bffffffffffffffffffffffffffffffffffffffffffffffffffffffff1916827bffffffffffffffffffffffffffffffffffffffffffffffffffffffff19161480610dfe5750610dfd826116bf565b5b9050919050565b610e0e816117a1565b610e4d576040517f08c379a0000000000000000000000000000000000000000000000000000000008152600401610e4490612e6b565b60405180910390fd5b50565b600033905090565b816004600083815260200190815260200160002060006101000a81548173ffffffffffffffffffffffffffffffffffffffff021916908373ffffffffffffffffffffffffffffffffffffffff160217905550808273ffffffffffffffffffffffffffffffffffffffff16610ecb8361096c565b73ffffffffffffffffffffffffffffffffffffffff167f8c5be1e5ebec7d5bd14f71427d1e84f3dd0314c0f7b2291e5b200ac8c7c3b92560405160405180910390a45050565b600080610f1d8361096c565b90508073ffffffffffffffffffffffffffffffffffffffff168473ffffffffffffffffffffffffffffffffffffffff161480610f5f5750610f5e8185610c73565b5b80610f9d57508373ffffffffffffffffffffffffffffffffffffffff16610f85846105a7565b73ffffffffffffffffffffffffffffffffffffffff16145b91505092915050565b8273ffffffffffffffffffffffffffffffffffffffff16610fc68261096c565b73ffffffffffffffffffffffffffffffffffffffff161461101c576040517f08c379a000000000000000000000000000000000000000000000000000000000815260040161101390613099565b60405180910390fd5b600073ffffffffffffffffffffffffffffffffffffffff168273ffffffffffffffffffffffffffffffffffffffff16141561108c576040517f08c379a00000000000000000000000000000000000000000000000000000000081526004016110839061312b565b60405180910390fd5b61109783838361180d565b6110a2600082610e58565b6001600360008573ffffffffffffffffffffffffffffffffffffffff1673ffffffffffffffffffffffffffffffffffffffff16815260200190815260200160002060008282546110f2919061314b565b925050819055506001600360008473ffffffffffffffffffffffffffffffffffffffff1673ffffffffffffffffffffffffffffffffffffffff1681526020019081526020016000206000828254611149919061317f565b92505081905550816002600083815260200190815260200160002060006101000a81548173ffffffffffffffffffffffffffffffffffffffff021916908373ffffffffffffffffffffffffffffffffffffffff160217905550808273ffffffffffffffffffffffffffffffffffffffff168473ffffffffffffffffffffffffffffffffffffffff167fddf252ad1be2c89b69c2b068fc378daa952ba7f163c4a11628f55a4df523b3ef60405160405180910390a461120883838361181d565b505050565b611215610e50565b73ffffffffffffffffffffffffffffffffffffffff16611233610aea565b73ffffffffffffffffffffffffffffffffffffffff1614611289576040517f08c379a000000000000000000000000000000000000000000000000000000000815260040161128090613221565b60405180910390fd5b565b6000600b60009054906101000a900473ffffffffffffffffffffffffffffffffffffffff16905081600b60006101000a81548173ffffffffffffffffffffffffffffffffffffffff021916908373ffffffffffffffffffffffffffffffffffffffff1602179055508173ffffffffffffffffffffffffffffffffffffffff168173ffffffffffffffffffffffffffffffffffffffff167f8be0079c531659141344cd1fd0a4f28419497f9722a3daafe3b4186f6b6457e060405160405180910390a35050565b8173ffffffffffffffffffffffffffffffffffffffff168373ffffffffffffffffffffffffffffffffffffffff1614156113c0576040517f08c379a00000000000000000000000000000000000000000000000000000000081526004016113b79061328d565b60405180910390fd5b80600560008573ffffffffffffffffffffffffffffffffffffffff1673ffffffffffffffffffffffffffffffffffffffff16815260200190815260200160002060008473ffffffffffffffffffffffffffffffffffffffff1673ffffffffffffffffffffffffffffffffffffffff16815260200190815260200160002060006101000a81548160ff0219169083151502179055508173ffffffffffffffffffffffffffffffffffffffff168373ffffffffffffffffffffffffffffffffffffffff167f17307eab39ab6107e8899845ad3d59bd9653f200f220920489ca2b5937696c31836040516114b191906123f7565b60405180910390a3505050565b6114c9848484610fa6565b6114d584848484611822565b611514576040517f08c379a000000000000000000000000000000000000000000000000000000000815260040161150b9061331f565b60405180910390fd5b50505050565b606061152582610e05565b600060066000848152602001908152602001600020805461154590612a32565b80601f016020809104026020016040519081016040528092919081815260200182805461157190612a32565b80156115be5780601f10611593576101008083540402835291602001916115be565b820191906000526020600020905b8154815290600101906020018083116115a157829003601f168201915b5050505050905060006115cf6119b9565b90506000815114156115e5578192505050611628565b60008251111561161a57808260405160200161160292919061337b565b60405160208183030381529060405292505050611628565b611623846119f6565b925050505b919050565b611647828260405180602001604052806000815250611a5e565b5050565b611654826117a1565b611693576040517f08c379a000000000000000000000000000000000000000000000000000000000815260040161168a90613411565b60405180910390fd5b806006600084815260200190815260200160002090805190602001906116ba9291906122a0565b505050565b60007f80ac58cd000000000000000000000000000000000000000000000000000000007bffffffffffffffffffffffffffffffffffffffffffffffffffffffff1916827bffffffffffffffffffffffffffffffffffffffffffffffffffffffff1916148061178a57507f5b5e139f000000000000000000000000000000000000000000000000000000007bffffffffffffffffffffffffffffffffffffffffffffffffffffffff1916827bffffffffffffffffffffffffffffffffffffffffffffffffffffffff1916145b8061179a575061179982611ab9565b5b9050919050565b60008073ffffffffffffffffffffffffffffffffffffffff166002600084815260200190815260200160002060009054906101000a900473ffffffffffffffffffffffffffffffffffffffff1673ffffffffffffffffffffffffffffffffffffffff1614159050919050565b611818838383611b23565b505050565b505050565b60006118438473ffffffffffffffffffffffffffffffffffffffff16611c37565b156119ac578373ffffffffffffffffffffffffffffffffffffffff1663150b7a0261186c610e50565b8786866040518563ffffffff1660e01b815260040161188e9493929190613486565b602060405180830381600087803b1580156118a857600080fd5b505af19250505080156118d957506040513d601f19601f820116820180604052508101906118d691906134e7565b60015b61195c573d8060008114611909576040519150601f19603f3d011682016040523d82523d6000602084013e61190e565b606091505b50600081511415611954576040517f08c379a000000000000000000000000000000000000000000000000000000000815260040161194b9061331f565b60405180910390fd5b805181602001fd5b63150b7a0260e01b7bffffffffffffffffffffffffffffffffffffffffffffffffffffffff1916817bffffffffffffffffffffffffffffffffffffffffffffffffffffffff1916149150506119b1565b600190505b949350505050565b60606040518060400160405280600781526020017f697066733a2f2f00000000000000000000000000000000000000000000000000815250905090565b6060611a0182610e05565b6000611a0b6119b9565b90506000815111611a2b5760405180602001604052806000815250611a56565b80611a3584611c5a565b604051602001611a4692919061337b565b6040516020818303038152906040525b915050919050565b611a688383611dbb565b611a756000848484611822565b611ab4576040517f08c379a0000000000000000000000000000000000000000000000000000000008152600401611aab9061331f565b60405180910390fd5b505050565b60007f01ffc9a7000000000000000000000000000000000000000000000000000000007bffffffffffffffffffffffffffffffffffffffffffffffffffffffff1916827bffffffffffffffffffffffffffffffffffffffffffffffffffffffff1916149050919050565b611b2e838383611f95565b600073ffffffffffffffffffffffffffffffffffffffff168373ffffffffffffffffffffffffffffffffffffffff161415611b7157611b6c81611f9a565b611bb0565b8173ffffffffffffffffffffffffffffffffffffffff168373ffffffffffffffffffffffffffffffffffffffff1614611baf57611bae8382611fe3565b5b5b600073ffffffffffffffffffffffffffffffffffffffff168273ffffffffffffffffffffffffffffffffffffffff161415611bf357611bee81612150565b611c32565b8273ffffffffffffffffffffffffffffffffffffffff168273ffffffffffffffffffffffffffffffffffffffff1614611c3157611c308282612221565b5b5b505050565b6000808273ffffffffffffffffffffffffffffffffffffffff163b119050919050565b60606000821415611ca2576040518060400160405280600181526020017f30000000000000000000000000000000000000000000000000000000000000008152509050611db6565b600082905060005b60008214611cd4578080611cbd90612f4c565b915050600a82611ccd9190613543565b9150611caa565b60008167ffffffffffffffff811115611cf057611cef612718565b5b6040519080825280601f01601f191660200182016040528015611d225781602001600182028036833780820191505090505b5090505b60008514611daf57600182611d3b919061314b565b9150600a85611d4a9190613574565b6030611d56919061317f565b60f81b818381518110611d6c57611d6b612df0565b5b60200101907effffffffffffffffffffffffffffffffffffffffffffffffffffffffffffff1916908160001a905350600a85611da89190613543565b9450611d26565b8093505050505b919050565b600073ffffffffffffffffffffffffffffffffffffffff168273ffffffffffffffffffffffffffffffffffffffff161415611e2b576040517f08c379a0000000000000000000000000000000000000000000000000000000008152600401611e22906135f1565b60405180910390fd5b611e34816117a1565b15611e74576040517f08c379a0000000000000000000000000000000000000000000000000000000008152600401611e6b9061365d565b60405180910390fd5b611e806000838361180d565b6001600360008473ffffffffffffffffffffffffffffffffffffffff1673ffffffffffffffffffffffffffffffffffffffff1681526020019081526020016000206000828254611ed0919061317f565b92505081905550816002600083815260200190815260200160002060006101000a81548173ffffffffffffffffffffffffffffffffffffffff021916908373ffffffffffffffffffffffffffffffffffffffff160217905550808273ffffffffffffffffffffffffffffffffffffffff16600073ffffffffffffffffffffffffffffffffffffffff167fddf252ad1be2c89b69c2b068fc378daa952ba7f163c4a11628f55a4df523b3ef60405160405180910390a4611f916000838361181d565b5050565b505050565b600980549050600a600083815260200190815260200160002081905550600981908060018154018082558091505060019003906000526020600020016000909190919091505550565b60006001611ff084610a1e565b611ffa919061314b565b90506000600860008481526020019081526020016000205490508181146120df576000600760008673ffffffffffffffffffffffffffffffffffffffff1673ffffffffffffffffffffffffffffffffffffffff168152602001908152602001600020600084815260200190815260200160002054905080600760008773ffffffffffffffffffffffffffffffffffffffff1673ffffffffffffffffffffffffffffffffffffffff168152602001908152602001600020600084815260200190815260200160002081905550816008600083815260200190815260200160002081905550505b6008600084815260200190815260200160002060009055600760008573ffffffffffffffffffffffffffffffffffffffff1673ffffffffffffffffffffffffffffffffffffffff16815260200190815260200160002060008381526020019081526020016000206000905550505050565b60006001600980549050612164919061314b565b90506000600a600084815260200190815260200160002054905060006009838154811061219457612193612df0565b5b9060005260206000200154905080600983815481106121b6576121b5612df0565b5b906000526020600020018190555081600a600083815260200190815260200160002081905550600a60008581526020019081526020016000206000905560098054806122055761220461367d565b5b6001900381819060005260206000200160009055905550505050565b600061222c83610a1e565b905081600760008573ffffffffffffffffffffffffffffffffffffffff1673ffffffffffffffffffffffffffffffffffffffff168152602001908152602001600020600083815260200190815260200160002081905550806008600084815260200190815260200160002081905550505050565b8280546122ac90612a32565b90600052602060002090601f0160209004810192826122ce5760008555612315565b82601f106122e757805160ff1916838001178555612315565b82800160010185558215612315579182015b828111156123145782518255916020019190600101906122f9565b5b5090506123229190612326565b5090565b5b8082111561233f576000816000905550600101612327565b5090565b6000604051905090565b600080fd5b600080fd5b60007fffffffff0000000000000000000000000000000000000000000000000000000082169050919050565b61238c81612357565b811461239757600080fd5b50565b6000813590506123a981612383565b92915050565b6000602082840312156123c5576123c461234d565b5b60006123d38482850161239a565b91505092915050565b60008115159050919050565b6123f1816123dc565b82525050565b600060208201905061240c60008301846123e8565b92915050565b600081519050919050565b600082825260208201905092915050565b60005b8381101561244c578082015181840152602081019050612431565b8381111561245b576000848401525b50505050565b6000601f19601f8301169050919050565b600061247d82612412565b612487818561241d565b935061249781856020860161242e565b6124a081612461565b840191505092915050565b600060208201905081810360008301526124c58184612472565b905092915050565b6000819050919050565b6124e0816124cd565b81146124eb57600080fd5b50565b6000813590506124fd816124d7565b92915050565b6000602082840312156125195761251861234d565b5b6000612527848285016124ee565b91505092915050565b600073ffffffffffffffffffffffffffffffffffffffff82169050919050565b600061255b82612530565b9050919050565b61256b81612550565b82525050565b60006020820190506125866000830184612562565b92915050565b61259581612550565b81146125a057600080fd5b50565b6000813590506125b28161258c565b92915050565b600080604083850312156125cf576125ce61234d565b5b60006125dd858286016125a3565b92505060206125ee858286016124ee565b9150509250929050565b612601816124cd565b82525050565b600060208201905061261c60008301846125f8565b92915050565b60008060006060848603121561263b5761263a61234d565b5b6000612649868287016125a3565b935050602061265a868287016125a3565b925050604061266b868287016124ee565b9150509250925092565b60006020828403121561268b5761268a61234d565b5b6000612699848285016125a3565b91505092915050565b6126ab816123dc565b81146126b657600080fd5b50565b6000813590506126c8816126a2565b92915050565b600080604083850312156126e5576126e461234d565b5b60006126f3858286016125a3565b9250506020612704858286016126b9565b9150509250929050565b600080fd5b600080fd5b7f4e487b7100000000000000000000000000000000000000000000000000000000600052604160045260246000fd5b61275082612461565b810181811067ffffffffffffffff8211171561276f5761276e612718565b5b80604052505050565b6000612782612343565b905061278e8282612747565b919050565b600067ffffffffffffffff8211156127ae576127ad612718565b5b6127b782612461565b9050602081019050919050565b82818337600083830152505050565b60006127e66127e184612793565b612778565b90508281526020810184848401111561280257612801612713565b5b61280d8482856127c4565b509392505050565b600082601f83011261282a5761282961270e565b5b813561283a8482602086016127d3565b91505092915050565b6000806000806080858703121561285d5761285c61234d565b5b600061286b878288016125a3565b945050602061287c878288016125a3565b935050604061288d878288016124ee565b925050606085013567ffffffffffffffff8111156128ae576128ad612352565b5b6128ba87828801612815565b91505092959194509250565b600067ffffffffffffffff8211156128e1576128e0612718565b5b6128ea82612461565b9050602081019050919050565b600061290a612905846128c6565b612778565b90508281526020810184848401111561292657612925612713565b5b6129318482856127c4565b509392505050565b600082601f83011261294e5761294d61270e565b5b813561295e8482602086016128f7565b91505092915050565b6000806040838503121561297e5761297d61234d565b5b600061298c858286016125a3565b925050602083013567ffffffffffffffff8111156129ad576129ac612352565b5b6129b985828601612939565b9150509250929050565b600080604083850312156129da576129d961234d565b5b60006129e8858286016125a3565b92505060206129f9858286016125a3565b9150509250929050565b7f4e487b7100000000000000000000000000000000000000000000000000000000600052602260045260246000fd5b60006002820490506001821680612a4a57607f821691505b60208210811415612a5e57612a5d612a03565b5b50919050565b7f4552433732313a20617070726f76616c20746f2063757272656e74206f776e6560008201527f7200000000000000000000000000000000000000000000000000000000000000602082015250565b6000612ac060218361241d565b9150612acb82612a64565b604082019050919050565b60006020820190508181036000830152612aef81612ab3565b9050919050565b7f4552433732313a20617070726f76652063616c6c6572206973206e6f7420746f60008201527f6b656e206f776e6572206e6f7220617070726f76656420666f7220616c6c0000602082015250565b6000612b52603e8361241d565b9150612b5d82612af6565b604082019050919050565b60006020820190508181036000830152612b8181612b45565b9050919050565b7f4552433732313a2063616c6c6572206973206e6f7420746f6b656e206f776e6560008201527f72206e6f7220617070726f766564000000000000000000000000000000000000602082015250565b6000612be4602e8361241d565b9150612bef82612b88565b604082019050919050565b60006020820190508181036000830152612c1381612bd7565b9050919050565b7f455243373231456e756d657261626c653a206f776e657220696e646578206f7560008201527f74206f6620626f756e6473000000000000000000000000000000000000000000602082015250565b6000612c76602b8361241d565b9150612c8182612c1a565b604082019050919050565b60006020820190508181036000830152612ca581612c69565b9050919050565b600081905092915050565b50565b6000612cc7600083612cac565b9150612cd282612cb7565b600082019050919050565b6000612ce882612cba565b9150819050919050565b7f4661696c656420746f2073656e64204574686572000000000000000000000000600082015250565b6000612d2860148361241d565b9150612d3382612cf2565b602082019050919050565b60006020820190508181036000830152612d5781612d1b565b9050919050565b7f455243373231456e756d657261626c653a20676c6f62616c20696e646578206f60008201527f7574206f6620626f756e64730000000000000000000000000000000000000000602082015250565b6000612dba602c8361241d565b9150612dc582612d5e565b604082019050919050565b60006020820190508181036000830152612de981612dad565b9050919050565b7f4e487b7100000000000000000000000000000000000000000000000000000000600052603260045260246000fd5b7f4552433732313a20696e76616c696420746f6b656e2049440000000000000000600082015250565b6000612e5560188361241d565b9150612e6082612e1f565b602082019050919050565b60006020820190508181036000830152612e8481612e48565b9050919050565b7f4552433732313a2061646472657373207a65726f206973206e6f74206120766160008201527f6c6964206f776e65720000000000000000000000000000000000000000000000602082015250565b6000612ee760298361241d565b9150612ef282612e8b565b604082019050919050565b60006020820190508181036000830152612f1681612eda565b9050919050565b7f4e487b7100000000000000000000000000000000000000000000000000000000600052601160045260246000fd5b6000612f57826124cd565b91507fffffffffffffffffffffffffffffffffffffffffffffffffffffffffffffffff821415612f8a57612f89612f1d565b5b600182019050919050565b7f4f776e61626c653a206e6577206f776e657220697320746865207a65726f206160008201527f6464726573730000000000000000000000000000000000000000000000000000602082015250565b6000612ff160268361241d565b9150612ffc82612f95565b604082019050919050565b6000602082019050818103600083015261302081612fe4565b9050919050565b7f4552433732313a207472616e736665722066726f6d20696e636f72726563742060008201527f6f776e6572000000000000000000000000000000000000000000000000000000602082015250565b600061308360258361241d565b915061308e82613027565b604082019050919050565b600060208201905081810360008301526130b281613076565b9050919050565b7f4552433732313a207472616e7366657220746f20746865207a65726f2061646460008201527f7265737300000000000000000000000000000000000000000000000000000000602082015250565b600061311560248361241d565b9150613120826130b9565b604082019050919050565b6000602082019050818103600083015261314481613108565b9050919050565b6000613156826124cd565b9150613161836124cd565b92508282101561317457613173612f1d565b5b828203905092915050565b600061318a826124cd565b9150613195836124cd565b9250827fffffffffffffffffffffffffffffffffffffffffffffffffffffffffffffffff038211156131ca576131c9612f1d565b5b828201905092915050565b7f4f776e61626c653a2063616c6c6572206973206e6f7420746865206f776e6572600082015250565b600061320b60208361241d565b9150613216826131d5565b602082019050919050565b6000602082019050818103600083015261323a816131fe565b9050919050565b7f4552433732313a20617070726f766520746f2063616c6c657200000000000000600082015250565b600061327760198361241d565b915061328282613241565b602082019050919050565b600060208201905081810360008301526132a68161326a565b9050919050565b7f4552433732313a207472616e7366657220746f206e6f6e20455243373231526560008201527f63656976657220696d706c656d656e7465720000000000000000000000000000602082015250565b600061330960328361241d565b9150613314826132ad565b604082019050919050565b60006020820190508181036000830152613338816132fc565b9050919050565b600081905092915050565b600061335582612412565b61335f818561333f565b935061336f81856020860161242e565b80840191505092915050565b6000613387828561334a565b9150613393828461334a565b91508190509392505050565b7f45524337323155524953746f726167653a2055524920736574206f66206e6f6e60008201527f6578697374656e7420746f6b656e000000000000000000000000000000000000602082015250565b60006133fb602e8361241d565b91506134068261339f565b604082019050919050565b6000602082019050818103600083015261342a816133ee565b9050919050565b600081519050919050565b600082825260208201905092915050565b600061345882613431565b613462818561343c565b935061347281856020860161242e565b61347b81612461565b840191505092915050565b600060808201905061349b6000830187612562565b6134a86020830186612562565b6134b560408301856125f8565b81810360608301526134c7818461344d565b905095945050505050565b6000815190506134e181612383565b92915050565b6000602082840312156134fd576134fc61234d565b5b600061350b848285016134d2565b91505092915050565b7f4e487b7100000000000000000000000000000000000000000000000000000000600052601260045260246000fd5b600061354e826124cd565b9150613559836124cd565b92508261356957613568613514565b5b828204905092915050565b600061357f826124cd565b915061358a836124cd565b92508261359a57613599613514565b5b828206905092915050565b7f4552433732313a206d696e7420746f20746865207a65726f2061646472657373600082015250565b60006135db60208361241d565b91506135e6826135a5565b602082019050919050565b6000602082019050818103600083015261360a816135ce565b9050919050565b7f4552433732313a20746f6b656e20616c7265616479206d696e74656400000000600082015250565b6000613647601c8361241d565b915061365282613611565b602082019050919050565b600060208201905081810360008301526136768161363a565b9050919050565b7f4e487b7100000000000000000000000000000000000000000000000000000000600052603160045260246000fdfea2646970667358221220eb23f850e9b8c76d205a932b9a2085160312dab5b3c31887b0c03c07fffb65c264736f6c63430008090033",
  "linkReferences": {},
  "deployedLinkReferences": {}
}